:0300000002086E85
:0C086E00787FE4F6D8FD758108020800D0
:10084E00E4FDFCC3ED9FEC9E5015E4FBFA0BBB00E0
:0F085E00010ABA04F8BBFBF50DBD00010C80E4E4
:01086D002268
:0C087A00758920758DFD759850D28E2276
:090886003098FD859908C2982202
:09088F00C2A1D2A2D2A4C2A5228A
:09089800D2A1C2A2C2A4D2A52281
:0908A100D2A1C2A2D2A4C2A52278
:0908AA00C2A1D2A2C2A4D2A5226F
:0908B300C2A1C2A2C2A4C2A52286
:10080000C2A1C2A2C2A4C2A512087A120886E50833
:10081000B446051208A1801CE508B442051208AAD6
:100820008012E508B44C0512088F8008E508B45220
:100830000C1208987F0A7E0012084E80CEE508B49C
:0E08400053C91208B37F0A7E0012084E80BD15
:00000001FF
